:10000000E07F0010CD000000111B0000131B00005A
:10001000151B0000171B0000191B0000000000004A
:10002000000000000000000000000000CD1F0000E4
:10003000CF1F000000000000D11F0000D31F0000F0
:10004000D51F0000D51F0000D51F0000D51F0000E0
:10005000D51F0000E5080000D51F0000D51F0000D7
:10006000D51F0000D51F0000D51F0000D51F0000C0
:10007000D51F0000D51F0000D51F0000D51F0000B0
:10008000D51F0000D51F0000D51F0000D51F0000A0
:10009000D51F0000D51F0000D51F0000D51F000090
:1000A00035150000D51F0000D51F0000D51F00002A
:1000B000D51F0000D51F0000D51F0000D51F000070
:1000C000D51F0000D51F0000D51F00000D490E4AA6
:1000D0000E4B9A423EBF51F8040B42F8040BF8E76E
:1000E00000200B490B4A91423CBF41F8040BFAE750
:1000F0000948804709488047094880470948004720
:10010000FEE70000283800000000001090000010FA
:1001100090000010E80B0010C5200000D91F00005F
:10012000071800003D19000010B5054C237833B9BD
:10013000044B13B10448AFF300800123237010BDBA
:100140009000001000000000D437000008B5034BF9
:100150001BB103490348AFF3008008BD0000000055
:1001600094000010D43700003022064B000440F405
:10017000A060C3F80822C3F81002D3F80022D20608
:10018000FBD5704700C000502022084B000440F40B
:100190000070C3F80822C3F81002D3F800229206B8
:1001A000FBD5D3F81402C0B2704700BF00C00050A6
:1001B0001022064B904040F48070C3F80822C3F828
:1001C0001002D3F80022D206FBD5704700C00050C1
:1001D000014608B572B6D020034B9847034B41F057
:1001E0008000984762B608BD69010000B1010000B7
:1001F000014608B572B6D820034B9847034B084612
:10020000984762B608BD00BF69010000B101000057
:10021000014608B572B6F320034B9847034B0846D6
:10022000984762B608BD00BF69010000B101000037
:10023000014608B572B6FE20034B9847034B0846AB
:10024000984762B608BD00BF69010000B101000017
:1002500008B572B6FE20034B9847034BFE20984723
:1002600062B608BD690100008901000008B572B6D8
:10027000410001F01E0141EAD0110846034B9847A6
:10028000034B0846984762B608BD00BF69010000ED
:100290008901000072B6430003F01E0343EAD01048
:1002A000012303FA00F0064BC3F83802D3F800220A
:1002B0009206FBD5D3F8140262B6C0B2704700BFF5
:1002C00000C0005008B572B6430003F01E0343EAB5
:1002D000D01040F04000034B9847034B0846984726
:1002E00062B608BD69010000B101000008B572B630
:1002F000F220034B9847034BF220984762B608BDA3
:10030000690100008901000008B572B6FA20024BAD
:10031000984762B608BD00BF6901000010B5044BE4
:100320009847BDE8104040F00100024BC0B21847AA
:10033000510200003102000010B5044B9847BDE89F
:100340001040034B00F0FE00184700BF51020000B0
:100350003102000037B5044601220020324B022949
:100360001A708DF80400314B8DF803001DD1032C59
:1003700054D118602E4B2F4818608DF80220C1F31D
:100380004213684601F01F012B4D8DF800308DF8A7
:100390000110A847C4F34213684604F01F048DF807
:1003A00000308DF80140A8473BE051B9012C35D110
:1003B00003221A601E4B214A1A6002238DF8023074
:1003C000DDE70A2906D10B2C28D102201860184B32
:1003D0001B48D1E70F2905D1102C1FD11A601948ED
:1003E000134BC9E7192906D11A2C17D10322134838
:1003F0001A600F4BC0E7402905D1412C0ED11A607D
:100400000B4B104AD8E7482904D1492C06D10222C7
:100410001A60DCE79C2901D19D2CE6E74FF0FF3202
:100420001A6003B030BD00BFD8040010C80200102D
:10043000D404001000C00040ED21000000C00940BD
:10044000008009400000014000238A4A2DE9F04F56
:100450001370894A894D11791371517953719179CA
:100460009371D179D3711178137051785370917859
:100470009370D178D370824AA84294BF0325012596
:10048000117913715179537191799371D179D37134
:10049000117813705178537091789370D1781E460B
:1004A0001946D370774A89B012684FEA001905924D
:1004B00004930193CB464FF0010E059AEA40540194
:1004C0005200CDE902220694DA4600245FFA8EF249
:1004D0000792029AB2FBFAF20132B2F5003F30D233
:1004E000012A94BF0122520814B1022A38BF022205
:1004F00004FB02FC4FEA0C3CBCFBFEFC069F0CEB31
:10050000023CB7FBFCFCB0EBCC0F4FEACC0894BF2D
:10051000A8EB000CA0EB080CB04294BF371A871B65
:1005200067450ED993B20193079B40450493E9B206
:10053000E3B21ED04FF4C06202FB0CFC604518D839
:10054000464601347445CA44C3D1DDE902270F2C65
:100550003A4404F1010ECB440292B5D1C824B04212
:1005600094BF321A821B6243904202D8013D032D90
:10057000A0D903291CBF444A515C444A1268032A8B
:1005800075D8DFE802F002415263414CD4F8C42030
:1005900042F00802C4F8C420D4F8A82122F0C00216
:1005A00042EA8111C4F8A81105213A4A9DF8047065
:1005B0001268147B44F080041473019C240A1471A3
:1005C0001770147B04F07F041473049C43EA041333
:1005D000DBB282F82830072313720323137300233E
:1005E00082F8243092F8303043F0800382F83030C3
:1005F00001234A0901F01F0103FA01F1264B43F8D8
:10060000221009B0BDE8F08F214CD4F8C42042F08C
:100610001002C4F8C420D4F8A82122F4407242EA9F
:100620000121C4F8A8110621BFE7194CD4F8C42051
:1006300042F08072C4F8C420D4F8AC2122F44032D5
:1006400042EA0141C4F8AC110721AEE7104CD4F8DE
:10065000C42042F00072C4F8C420D4F8AC2122F4C3
:10066000402242EA8141C4F8AC1108219DE74FF0D5
:10067000FF319AE7C4020010CC0200103F420F0085
:10068000BC0000108800001070360000C802001086
:1006900000C00F40D404001000E100E010B5144683
:1006A000034B98472046BDE81040024B184700BF57
:1006B00055030000490400000B4B1B68032B07D8AF
:1006C000DFE803F002070A0D2022084BC3F8802060
:1006D00070474022054BF9E78022044BF6E74FF4C0
:1006E0008072024BF2E700BFC802001000E100E098
:1006F000044B58681B6800F2FF10C01AC0F30800D2
:10070000704700BFCC020010064B1B681B7D5B06C8
:100710005FBF054B18685B68C01A54BFC0F3080080
:1007200000207047D4040010CC02001070B5194CA2
:10073000002201212068184DA847184E2068B047B4
:100740000128FBD02068164B1A6859684A40C2F34A
:1007500008025AB91C685A68124E5440C4F308047F
:1007600084B922460121A847347070BD5A68511CD3
:1007700059601A44127AD2B202705A68C2F308025F
:100780005A60E1E7012232702B46BDE87040114605
:10079000184700BFD404001095220000FB2200007F
:1007A000CC020010C4020010F8B5EFF3058212F07D
:1007B0001F0200D172B60025224B234E8D4208D075
:1007C0005F681C6801347C40C4F3080454B9347871
:1007D00044B902B962B61D4B1B780BB91C4B984744
:1007E0002846F8BD02B962B65F681C6801347C40D7
:1007F000C4F3080414BB3478DCB1D2B95F681C6858
:1008000001347C40C4F308048CB172B61C68671CC8
:100810001F60475D1C4427721C68C4F308041C60F9
:1008200002B962B60135002AC8D172B6C6E730BF38
:10083000E4E75C680134C4F308045C60002AE5D195
:10084000E3E700BFCC020010D8040010C40200107F
:100850002D07000010B50D4B18680D4B027DD20717
:1008600013D501785C681A68C9B201326240C2F3DC
:100870000802002AF2D01A68541C1A441C60117233
:100880001A68C2F308021A60E8E710BDD404001029
:10089000BC00001070B50E4D0E4B2868984700F054
:1008A0000E04062C06D128680B4B984710F09E0FBB
:1008B0000CD0FEE700F00600042801D1074B984752
:1008C000022C03D1BDE87040054B184770BD00BF36
:1008D000D4040010EF220000E922000055080000B7
:1008E0002D070000004B184795080000014B1860C9
:1008F000704700BF3005001000230221044A5370E6
:100900001370044A117153719371D371704700BF12
:10091000EE040010DC0400100020F0B5174B184A5C
:100920009C891168250A6E1EE4B20A7832B91A71E0
:100930005A719A71DA7101221A7216E04F78AF4239
:100940001AD1042E06D8DFE806F0130305111100B2
:100950004C79204684420ED11960022D08BF4A8886
:10096000198A5A60914200DA5960F0BD8878F1E73F
:1009700000200446EEE701301144D6E7DC04001005
:10098000300500100120014B184700BFF1010000A5
:1009900001210022034B1970034B19715A719A718E
:1009A000DA717047EE040010DC0400100348837A0B
:1009B00013F07C0F01D0024B18477047DC04001085
:1009C000DD1E000010B5214C082221460020204BDE
:1009D0009847082838D1002304F8013C1D4BA4F1A6
:1009E0000A0044F80A3C038A4360837A13F07C0FC0
:1009F00026D1C27A092A1FD8DFE802F005261E2672
:100A00001E091426181A144BBDE810401847808997
:100A1000124BC0B29847BDE810400022802011461A
:100A20000F4B18470F4BBDE8104018470E4BEBE734
:100A30000E4BBDE8104018470D4BBDE8104018475D
:100A40000C4BBDE81040184710BD00BFE604001075
:100A500069130000EE040010F9080000D101000045
:100A6000E113000019090000910900008509000048
:100A700045140000851E000070B51A4C637AC3B996
:100A800094F90A306568002B1EDA9DB1412D34BF00
:100A90002A464022144B80202168984763682268C8
:100AA0001B1A0244636022601BB9402801D1012354
:100AB000237270BD237A002BFBD02A462946802062
:100AC000094B98472572F4E7002DF2D12A462946B2
:100AD000054B8020984701236372044BBDE87040AA
:100AE000184700BFDC040010E1130000AD0900004E
:100AF00010B5194C607A40BB94F90A306268002B3B
:100B000015DB164B52B121689847636883420ADBB4
:100B10001B1A636023681844206010BD11461046FC
:100B200098470028F9D0BDE810400D4B1847002A1F
:100B3000F9D111461046094B98470028F3D10123FB
:100B40006372084BBDE8104018474022BDE81040D2
:100B500000200549014B1847DC0400106913000010
:100B600045140000AD090000EE040010004B1847CA
:100B7000F11FFF1F38B5044672B633250548C0E99A
:100B80000051C0E902230449044B0461984762B64E
:100B900038BD00BF34050010480500106D0B000083
:100BA00010B43424044BC3E90040C3E902121846D0
:100BB0000249034B10BC18473405001048050010CB
:100BC0006D0B000010B43224044BC3E90040C3E9AC
:100BD000021218460249034B10BC18473405001096
:100BE000480500106D0B000070B5054672B6042470
:100BF0006FF4D0220F2C9ABF230303F6FF7302EB8E
:100C0000C4338B4217D90F2C8ABFA4F10E032303E0
:100C1000DB038B420A4E08D12A4621462046B047C4
:100C20002A4621462046074B98472A462146204619
:100C3000B04762B670BD01341E2CDBD1F9E700BFAE
:100C4000C50B0000A10B00002DE9F843194C2368E7
:100C500003B92060184E194B356888182B4481421F
:100C600021D11544B5F5007F356021D14FF47A7854
:100C7000DFF85890124FD9F800002168B0FBF8F067
:100C8000104B9847386860B9D9F800002B46B0FB84
:100C9000F8F00A4A21680C4DA847386808B9306056
:100CA0002060BDE8F88311F8017B03F8017BD6E7EB
:100CB0000020F6E7B0000010AC0000105C0500104A
:100CC00048050010E90B0000750B000088000010BB
:100CD00070B50024064620460131891A8C4200DB9B
:100CE00070BD1519A6EBE503DB7B05F007052B416D
:100CF00003F00103A34018430134EFE708B5054BA7
:100D0000B3F90000044B9847044BFF2098474FF07D
:100D1000FF3008BD64070010BD1700003917000040
:100D200010B51C46064B98472046064B9847204670
:100D3000054B9847054B20469847054B1C8010BD36
:100D4000D515000085170000A5170000BD1700008D
:100D500064070010024B1868B0FA80F04009704731
:100D60006C070010014B1868704700BF6C0700103B
:100D70004FF40070704700002DE9F04104460D4625
:100D8000154E164BB6F90000984744F04000C0B22B
:100D9000134CA047280EA047C5F30740A047C5F352
:100DA0000720A047E8B2A0479520A0474FF48057FE
:100DB000FF20A0470306054605D5013FF8D1094BA2
:100DC000BDE8F0411847B6F90000074B9847FF20EF
:100DD000A0472846BDE8F08164070010D117000045
:100DE00039170000FD0C0000BD17000038B54FF4A6
:100DF0008054084D00213720A84700212920A8470A
:100E000018B90120044B186038BD013CF2D12046CE
:100E1000FAE700BF790D00006807001070B50446BE
:100E20000D46114BB3F90000104B984744F04000B9
:100E3000C0B20F4CA047280EA047C5F30740A047FB
:100E4000C5F30720A047E8B2A0479520A0474FF47C
:100E50008055FF20A047030605D5013DF9D1054B7C
:100E6000BDE87040184770BD64070010D11700003E
:100E700039170000FD0C00002DE9F041214F224BF5
:100E80000646B7F900009847204C7A20A04700207A
:100E9000A0470020A0470020A0470020A0479520A1
:100EA000A0474FF48058FF20A047030605461DD4F5
:100EB000FF20A04700063060FF20A047336843EAC8
:100EC00000433360FF20A047336843EA00233360C8
:100ED000FF20A047336803433360B7F900000C4B91
:100EE0009847FF20A0472846BDE8F081B8F10108E7
:100EF000D9D1B7F90000064B9847FF20A0474FF023
:100F0000FF35F0E764070010D11700003917000023
:100F1000BD17000037B54FF480540E4D0021372027
:100F2000A8474FF080412920A84760B90A4B01A883
:100F30009847019B13F0804F14BF03200220074BFA
:100F4000186003B030BD013CE8D1044B20461C6062
:100F5000F7E700BF790D0000790E00006807001068
:100F60002DE9F041174E184BB6F900009847174C81
:100F70004820A0470020A0470020A0470120A0470C
:100F8000AA20A0478720A0474FF47A17FF20A04748
:100F90000306054605D5013FF8D10D4BBDE8F041EC
:100FA0001847FF20A047FF20A047FF20A047FF20B1
:100FB000A047B6F90000074B9847FF20A0472846F6
:100FC000BDE8F08164070010D11700003917000058
:100FD000FD0C0000BD17000070B546F2A810114BC3
:100FE0009847114B1024B3F90000104B9847104D4F
:100FF000FF20A847013CFBD1214620460D4B9847D6
:10100000012803D000200C4B186070BD0B4B984793
:10101000012803D10A4BBDE8704018470528F1D1DB
:10102000084BF8E74915000064070010BD170000E1
:1010300039170000790D000068070010610F0000EB
:10104000150F0000ED0D00002DE9F041114D124E7D
:101050008046124BB5F900000F4634469847FF20F2
:10106000B047FE28FBD10026BE424FF0FF000BDB4D
:10107000A047FF20A047B5F90000094B9847FF2083
:10108000A0470020BDE8F081A04708F8060001361F
:10109000EAE700BF6407001039170000D11700000D
:1010A000BD17000038B50C4B05461B685A1E012AB7
:1010B0000CD849021120094B9847044650B94FF407
:1010C00000712846064B9847204638BD032B18BFB1
:1010D0000021EFE70124F7E768070010790D000011
:1010E000491000002DE9F041DFF86C80174B0746EE
:1010F000B8F900000E46164C9847FE20A047002580
:10110000B54212DBFF20A047FF20A047FF20A047E9
:1011100000F01F0005280CD0B8F900000D4B9847CF
:10112000FF20A0470120BDE8F081785DA047013590
:10113000E6E7FF20A0470028FBD0B8F90000054BE8
:101140009847FF20A0470020EDE700BFD11700001F
:1011500039170000BD1700006407001038B50C4BAC
:1011600005461B685A1E012A0CD849021820094B53
:101170009847044650B94FF400712846064B9847EB
:10118000204638BD032B18BF0021EFE70124F7E705
:1011900068070010790D0000E51000007FB5002100
:1011A0000920214B984700283CD1102168461F4B4D
:1011B0009847002836D17E227F2168461C4EB047D2
:1011C00018BB1C4B1B68032B1DD03E2249216846CF
:1011D000B0472F22044631216846B04750220546C9
:1011E00053216846B04701228240B2F5007F04F1E6
:1011F000010405F1020504FA05F327BF500A58431C
:1012000003FA00F0400A04B070BD01280AD1094B6E
:101210001B68032B06D1302245216846B0470130B8
:101220008002F0E70020EEE71D0E000049100000EC
:10123000D10C000068070010002310B50B4C236090
:101240000B4B984710B90124204610BD094B984715
:101250004FF400712060084B102098470446002886
:10126000F1D10648064B9847EEE700BF6C07001027
:10127000D90F00009D110000790D000000093D000C
:1012800049150000134A10B5D2F8C43043F00043AA
:10129000C2F8C430104BD3F8F42F42F01202C3F856
:1012A000F42FD3F8F82F122AFBD10C4C636823F0EB
:1012B00070536360636843F0A0536360084B9847C2
:1012C000236923F440332361236943F4802323619A
:1012D00010BD00BF00C00F4000C0005000C0024061
:1012E00039030000004B18473903000010B572B6EF
:1012F0004FF48072104BC3F80822420002F01E0225
:1013000042EAD0100122D3F8444282401443C3F889
:101310004442C3F84802C3F84C1262B6D3F8001234
:10132000C905FBD54FF48071C3F80812D3F8341205
:101330000A43C3F8342210BD00C000500C2210B57F
:10134000064B074CC3F8042240218020A0474021CF
:101350000020A047BDE81040024B184700C00050D5
:10136000ED1200001D030000F8B572B68400194BA1
:1013700004F03C0444F00104C3F82842D3F82042AE
:101380002405FBD5D3F82042C4F30904944202DDBE
:1013900062B62046F8BDC4B9D3F818320E4B984750
:1013A0000E4B9847F4E713F0030708BFD6F818521E
:1013B000032FCD544FEA152503D1D6F82872FF0725
:1013C000ECD501339342EED1E8E70025014E2B46E0
:1013D000F8E700BF00C000506D020000ED02000001
:1013E00070B5144672B68200134B02F03C0242F014
:1013F0000202C3F82822C3F82442D4B92546C3F810
:101400001C420AE012680435C3F81C22D3F8286293
:101410004A19B60701D5A542F4DB084B9847084B9B
:101420009847BFF36F8F62B6A5422846A8BF2046F3
:1014300070BD0025EAE700BF00C000506D0200004B
:101440000903000080210020004B1847C50200005E
:101450002E4BF7B5D3F80022D70744BF0122C3F8BB
:101460000822D3F80022160712D50822C3F8082252
:10147000274B9847C5060BD5264B9847264C40214D
:101480008020A04700204021A0470220234B9847FE
:101490001E4BD3F8002254072CD5D3F83042E00776
:1014A00006D500201E4B9847410725D51D4B984770
:1014B000A20706D51A4B80209847C30701D41A4BC0
:1014C000984734F0030311D0082503240F4E144F1E
:1014D000D6F830322B4204D0601040EAC410C0B2BB
:1014E000B8470134202C4FEA4505F1D10422074BBF
:1014F000C3F8082203B0F0BD10F0010001D00B4B7F
:10150000D5E7082269460A4B9847D1E700C000504A
:1015100051020000911F0000ED12000011020000B6
:1015200095020000C5090000790A0000F10A0000D8
:1015300069130000684620F007018D4601B5BDE83B
:1015400001408546704700001E4A1F4BB2FBF0F277
:101550001A601E4B1B68A3B1B0F5C07F12D86FF0A4
:1015600001011A7C00221974597C5A74997C9A746E
:10157000D97CDA741A68D2B21A601A6842F47F42CF
:101580001A607047124988420CD902211A7C002245
:101590001974597C5A74997C9A74D97CDA741A68D3
:1015A000D2B2EDE702F0FE0119611968C9B2196003
:1015B00018691968B2FBF0F2013A120292B20A43BA
:1015C000DEE700BF40787D0178070010700700104B
:1015D00020BCBE002DE9F04101270D461446064609
:1015E00000F01F013A46DFF84C8107FA01F1C0F321
:1015F0004210C04705F01F0107FA01F10022C5F3B0
:101600004210C04704F01F013A4607FA01F1C4F343
:101610004210C047092E414F3ED1082D7AD1072CE8
:1016200078D13F4B3B60A3F580431A6822F47C22BB
:101630001A601A6842F428221A6003F55023D3F87E
:10164000A82122F44012C3F8A821D3F8A82142F41B
:101650008012C3F8A821D3F8C42042F48062C3F8F2
:10166000C4203B68B3B11A6842F21070120C120425
:101670001A601A6842F007021A605A6822F00F02D4
:101680005A605A685A60274B98473A68536843F043
:1016900002035360BDE8F081122E2AD1112D39D1F9
:1016A0000F2C37D1204B3B60A3F5B8231A6822F0EA
:1016B00040421A601A6842F000421A605A6822F0EA
:1016C0003C025A605A6842F028025A6003F55023DF
:1016D000D3F8AC2122F44062C3F8AC21D3F8AC219A
:1016E00042F48062C3F8AC21D3F8C42042F4001263
:1016F000B5E7382E0ED1372D0CD1342C0AD10A4B38
:101700000A4A3B60D36843F4703343F44073D360B8
:10171000074BDDE700233B60A3E700BF7007001025
:1017200000000340491500000080084000C002404E
:1017300000C00F4061230000064A0346106840B114
:10174000C2689207FCD58360C3685B07FCD58068DC
:10175000C0B2704770070010002307B5ADF8023023
:101760008DF80430C0F3421300F01F008DF80030F4
:101770008DF80100024B6846984703B05DF804FB02
:10178000ED210000004B1847591700000A460121BF
:1017900000F01F039940C0F34210014B184700BFEF
:1017A000612300000121014B184700BF8D17000085
:1017B0000021014B184700BF8D170000012100F0E8
:1017C0001F039940C0F34210004B184769230000E3
:1017D000012100F01F039940C0F34210004B18474D
:1017E0007123000010B5064B0446C0F34210984721
:1017F00004F01F0420FA04F444F30000C0B210BD4A
:10180000792300007047704700207047002382B0A2
:101810000093009B834202D3019802B07047009B63
:101820000193009B0133F3E74FF40073F0B54FF4DD
:101830008044ADF5037D164F164E174D01934FF4BE
:101840000072384601AB02A9B04728B11048134BCB
:1018500098470DF5037DF0BD20464FF4007202A9B4
:10186000A847019BB3F5007F1C44E8D008480B4B08
:101870009847B4F5804FECD9094C0A4B206898473B
:10188000094B019021681868084B9847E1E700BFB1
:10189000AC09001075310000490C000065330000F0
:1018A000040000107D3300000000001035340000FB
:1018B0007047000008B51420014B984708BD00BFD1
:1018C000E517000070B5084B9847084B9847084B40
:1018D0009847084C084DA04718B1BDE87040074B29
:1018E0001847A847F7E700BFA91D000085120000B0
:1018F0003D1300007D1F000051140000E5120000A0
:1019000010B50849084B00209847084B0122196878
:101910000748084B984718B9BDE81040064B1847D0
:1019200010BD00BF7E070010053000000000001051
:10193000AC090010213000002918000073B54E4B8F
:10194000984714204D4B984714204D4B98474D4BCA
:10195000022103204C4A98474C4C4D48A0474FF475
:1019600080530193019B002B75D106230722082188
:101970000920484DA847484B984708B9474B984716
:10198000474B9847002869D14648A047464B98479F
:1019900044F20403454D19684548A0472E46A84720
:1019A0000028FCD14348A047B0470028FCD1424B57
:1019B00098474248424988474FF48042414B9A60D9
:1019C0000122414BC3F88020AA22C3F88C20552263
:1019D000C3F88C20D3F8882012F00072FAD1C3F833
:1019E0008020AA22C3F88C205522C3F88C20364AC6
:1019F0001346D2F8880010F08070FAD1C2F8A00027
:101A0000AA20C2F8AC005520C2F8AC00D3F8A82038
:101A100012F40072FAD11868C0F30B00186018684D
:101A200040F4A0401860C3F804214FF47A70C3F862
:101A30000C21C3F8A0218847BFF35F8FBFF34F8FFE
:101A4000BFF36F8F4FF480431B6883F3088844F221
:101A500004031B689847019B013B82E71B4B984797
:101A600018B11B4B98471B488FE74FF480431B6806
:101A700001338DD1184888E78322000085170000C4
:101A8000B11700009D06000040420F00891D0000B4
:101A900073360000210D000039120000011900000A
:101AA000B518000085360000C518000009070000C1
:101AB000EF36000000370000B9060000C0C62D0058
:101AC0000D18000000ED00E000C00F40692200008A
:101AD00075220000AC360000CF3600000048704789
:101AE000A1A16DB9022870B50D46144609DC064E59
:101AF000B047A042FCDB21462846BDE87040034BBE
:101B00001847104670BD00BFF1060000A90700008D
:101B1000FEE7FEE7FEE7FEE7FEE7034600201A5C6D
:101B200002B970470130FAE738B50546044B08465C
:101B3000984704460246034B28469847204638BD3E
:101B40001B1B0000E51A0000F0B50A25002602461E
:101B50002F4630460F49104B0C68DFF840C09A42C0
:101B600002D2012B00D050B1B2FBF3F606F1300ED9
:101B700003FB162201260CF804E001300134013D7C
:101B8000B3FBF7F3EBD106B10C600B680021034AFD
:101B9000D154F0BDD009001000CA9A3BD4090010FE
:101BA000002810B50CDA074A012413684042591C7A
:101BB00011602D21044AD154044B9847204410BD94
:101BC0000024F9E7D0090010D4090010491B0000D7
:101BD000174BF0B51E6820B3002100F07044024698
:101BE0000D4600010131002CF7D00121114CDFF826
:101BF00048E03444100F10F80E00120104F8010BF5
:101C000006EB010708460AD105EB010CBCF1070FF2
:101C100005DD1F6000211B68064AD154F0BD01316B
:101C2000E8E73021721C1A60024A9155F2E700BFC2
:101C3000D0090010D4090010213700002DE9F74F1A
:101C40000026074614463546DFF834A1DFF8348114
:101C500001F1FF3919F8013F8DF807301BB9304603
:101C600003B0BDE8F08F002D73D04FF0000B782B40
:101C7000C8F800B005D86B2B0DD8632B53D0642B5C
:101C80004BD0394A252100255370022311709570DD
:101C9000C8F800302CE0A3F16C020C2AF1D801A1A5
:101CA00051F822F0E91C0000831C0000831C000096
:101CB000831C0000491D0000831C0000831C0000E1
:101CC000D91C0000831C00000D1D0000831C0000B7
:101CD000831C00003D1D0000384654F8041B234BB4
:101CE00098470644002503E0042D0CBF0825042571
:101CF000D8F80020002AADD038461B49D047D8F884
:101D000000301E440023C8F80030A3E7042DE9D8B2
:101D100054F8040B164B9847E4E7042DE2D854F826
:101D2000040B144BF7E754F8043B012238460DF13D
:101D300007018DF807300136D047D3E7042DD1D8FD
:101D400054F8040B0C4BE6E702220C490020D04764
:101D5000F6E7252B06D0012238460DF10701D047C2
:101D6000013677E7022575E7D4090010291B00002A
:101D7000491B0000A11B0000D11B000032370000EE
:101D8000E51A0000D00900100FB407B504AA52F8F4
:101D9000041B044B01920020984703B05DF804EB4C
:101DA00004B070473D1C000008B50348034B98473A
:101DB000034B044A1A6008BD0E000010ED08000035
:101DC000E4090010004000000E4B018A03600E4A37
:101DD000838941600D4802EB4323036081B10B44CA
:101DE0000B490A44934294BF03220A2209490A4B31
:101DF00095BF0A700A70052208211A7188BF1970F0
:101E0000704700BFE809001000400000E40900101E
:101E100000C00700E00900100800001009220D4B67
:101E200030B51A7083890C4A0C4902EB43230B60CE
:101E3000018A0B4D5C182A44944202D80360416029
:101E400030BD0023037143718371C3710123037299
:101E5000F6E700BFE009001000400000E4090010B0
:101E600000C007000022044B1A7002221A71034BB3
:101E7000034A1A60704700BF08000010E409001010
:101E800000400000837A03F07F03212B14D1C37A32
:101E9000013B052B10D8DFE803F0030507101210F3
:101EA000094B1847094B1847094B062203600023CA
:101EB000027143718371C3717047064B1847064B1B
:101EC000012203600023F3E7C91D00001D1E00006E
:101ED00008000010651E0000E0090010837A70B54C
:101EE00003F07F03212B04461DD1C37A022B2ED091
:101EF000032B19D0012B16D1038A194D13B3194E98
:101F0000194B3068A0F58040C00B98474FF4007221
:101F100016493068164B984780B9228A33681344B3
:101F2000336005232B7170BD0D4B124A1B79082BB2
:101F30001370F8D1BDE870400F4B184706232B7083
:101F40000A23EFE706220B4B1A700823EAE709225F
:101F5000034B1A71034A018A13680B441360E2E7CA
:101F600008000010E4090010B1180000E809001092
:101F7000490C0000E0090010E5120000034B18783E
:101F8000A0F1080358425841704700BFE009001013
:101F900008B50A4B1B78063B022B0DD8084B984717
:101FA000BFF34F8F0749084BCA6802F4E06213433E
:101FB000CB60BFF34F8FFEE708BD00BFE009001004
:101FC000E512000000ED00E00400FA05FEE7FEE780
:101FD000FEE7FEE7FEE7000008B5064B9847064B14
:101FE00098470648064B984708BDFEE7FEE7FEE720
:101FF000FEE7FEE781230000B1230000000000009F
:10200000E9230000294B10B5D3F888202849C2F3F2
:102010000162032AD3F80C2102F0030234D1012A11
:1020200017D0022A1FD0D3F88840D3F88800D3F8FD
:102030000421204BC4F30E0404FB0333C0F3074018
:102040000130B3FBF0F3D2B20132B3FBF2F30B6019
:1020500010BDD3F88840D3F88800C4F30E04D3F839
:102060000421154BE8E7D3F88820D3F88840D3F84B
:102070000401C2F30E030133C4F3074201321B040F
:10208000B3FBF2F3C2B2DFE7D3F80431012ADBB2CB
:1020900003F1010305D0022A05D0084AB2FBF3F38D
:1020A000D5E7074AFAE74FF40042F7E700C00F40D0
:1020B0008800001000127A0000366E0100093D0011
:1020C000001BB700202310B5414C86B0C4F8A031E6
:1020D000D4F8A0319B0603D5D4F8A0315806FBD51F
:1020E0000023C4F8A831C4F8AC310123C4F80C3182
:1020F0000223C4F8043136236846009301A9354B06
:102100009847029B13F4801F18BF0E224FF0AA03BA
:1021100008BF314AC4F88420C4F88C30552301220A
:10212000C4F88C302A4BC3F88020AA22C3F88C2034
:102130005522C3F88C20D3F888205101FBD5032207
:10214000C3F88020AA22C3F88C205522C3F88C2023
:102150001F4BD3F8882012F0407FFAD02322AA2107
:10216000C3F8A42001205522C3F8AC10C3F8AC205A
:10217000C3F8A000C3F8AC10C3F8AC20144B1C4645
:10218000D3F8A8205205FBD50322C3F8A020AA2229
:10219000C3F8AC205522C3F8AC20D4F8A83013F40F
:1021A000407FFAD00D4B98470D4B0E4AC4F8C4300F
:1021B0000023C4F8C83145F23A0323600A4B1B6878
:1021C00023F0404323F07F03936006B010BD00BFAF
:1021D00000C00F40F11FFF1F180001000520000084
:1021E0000884208000ED00E000000000F0B5467893
:1021F0000327334601780F2E4FEA410488BF01348C
:102200004FEA840202F1804202F5303288BFA6F123
:10221000100390F802C015685B009F400CFA03FCA5
:1022200025EA070545EA0C05DFF838C01560C578D2
:102230005CF8242005FA03F322EA07021A434CF85B
:10224000242001220079064B012853F8210002FACC
:1022500006F20CBF024320EA020243F82120F0BD3F
:1022600068C0024040C002404FF080431878C0F37D
:10227000800070474FF08042137803F0FB03137027
:10228000704772B64FF08043AA221A7255221A7212
:1022900062B67047062996BF114B002333F8113000
:1022A000012A104A09D1904203D142681343436086
:1022B0007047426813434360704790426FEA0303DC
:1022C00006D14268134023F070039B059B0DEEE797
:1022D0004268134023F0F8039B059B0DEBE700BF1A
:1022E0003637000000000140007DC0B270478068B2
:1022F00020F030008005800D7047007D80F04000A8
:10230000C0F380107047042808D8400100F1005045
:1023100000F51C20036812B119430160704723EADD
:102320000101FAE704289FBF400100F1005000F5C9
:102330001C208161704704289FBF400100F10050BC
:1023400000F51C20C161704704289FBF400100F1C7
:10235000005000F51C20406988BF00207047000035
:10236000004B184707230000004B184725230000A7
:10237000004B184737230000004B18474923000043
:1023800001224FF0FF31094BC3F88010C3F88420BD
:10239000C3F88011C3F88421002210469918013235
:1023A000202A81F80003F9D1704700BF00E100E066
:1023B0004FF020620A4B0B495A6000229A60D960A4
:1023C00011461A615A6198180132202A0176FAD111
:1023D0004FF0FF3259629A62DA621A63704700BFA7
:1023E00000ED00E00000FA05014B9860704700BF67
:1023F00000ED00E001380A44914200D1704711F825
:10240000013B00F8013FF7E708B503686BB11A78A4
:102410005AB1D9888288914207D15878044B98479D
:1024200010F0010018BF032008BD0920FCE700BF21
:1024300069350000CA7E8B7E032843EA022301BF70
:10244000487D0A7D42EA002243EA0243184670476B
:102450002DE9F843D0F82A6004468E420D4602D199
:102460000020BDE8F883037963B9002DF8D001237B
:102470002A466078144E04F12E01B04760B9C4F8C2
:102480002A50EEE700F12E09104F0123324649464B
:102490004078B847B84608B10120E2E7D4F81E30CA
:1024A000D4F81A2020711344B342DED9E778012F03
:1024B000DBD9D4F81A3049461E44324601236078ED
:1024C000013FC047FFB2F2E781350000B53500009B
:1024D00038B50A46044600F12E01012340780F4D1D
:1024E000A847B8B994F82D2294F82C3243EA022375
:1024F0004AF6552293420FD1636E094A23F07F4377
:10250000934206D0D4F8800020F07F40801A18BF94
:10251000012038BD0320FCE70220FAE781350000E6
:10252000464154002DE9F041036815461A780446E7
:10253000303A092A16D900230B608E4B1C68002CF8
:1025400000F011810C602378BBB160788A4B98470A
:10255000C60712D41DB110F0040500D00A25284684
:10256000BDE8F08158783A28E5D102332360002392
:102570000B60002AE1D00B25F1E700207F4B207093
:1025800060709847C10700F1F0800DB14207E5D4B3
:10259000002120467A4FB8470128054640F0CC80FC
:1025A00094F8F0310BB90D25D9E7D4F8F461204641
:1025B0003146B8470546032D00F0D980002DF2D1F1
:1025C00094F83A2094F8393043EA0223B3F5007FB7
:1025D000E9D194F8453094F8442094F83EE052EA6A
:1025E000032208BFD4F852200EF1FF33012BC4F8A8
:1025F0001A2084F803E0D6D894F83B70A770002F17
:10260000D1D07B1E3B42CED194F8403094F83F00AD
:1026100040EA032003072081C5D194F8421094F8C2
:10262000413094F83DC053EA012394F83C1008BFB0
:10263000D4F84E3051EA0C21B5D002FB0EFE01EB6E
:10264000101CF4446345AED3A3EB0C03BB42B3FBB5
:10265000F7F8A8D340F6F57398456FD94FF6F5779C
:10266000B84594BF0227032708F10203B44431445C
:10267000032FC4F81630C4F826C0C4F81E105FD16A
:10268000002890D1D4F85A109B00C4F8221003F20D
:10269000FF13B2EB532F86D34FF0FF33A373E373D3
:1026A000237463740023032FA372E3722373637391
:1026B00030D194F85F1094F85E20637142EA0122F1
:1026C0003244012360782F4EC4F8122004F12E0109
:1026D000B047F8B994F82D2294F82C3243EA02233B
:1026E0004AF65522934215D1D4F82E20264B9A4211
:1026F00010D103F1FF53D4F8122203F50053203315
:102700009A4201BFD4F81A32C4F80A30D4F816320B
:10271000C4F80E301D4A2770138801339BB2138012
:10272000E380002384F82A3084F82B3084F82C309E
:1027300084F82D30237112E700263CE7012793E748
:1027400000283FF430AF022F4FEA430018BFC018F3
:10275000714414BF03F001030346C4F8221018BFEC
:1027600003EB500393E70C25F9E60325F7E6012573
:10277000F5E600BFB40000106935000051350000D7
:10278000D12400008135000052526141B800001090
:1027900038B50021324B04469847034600285AD1E9
:1027A0002278032A4FD16279002A4CD004F12E01FD
:1027B0000A4684F82A0084F82B0084F82C0084F858
:1027C0002D0004F22E20824246D1552384F82C326B
:1027D000AA2384F82D32522384F82E3084F82F3027
:1027E00061234122722084F8303084F81532D4F805
:1027F0000E3084F8312084F81422C3F3072284F8C1
:10280000163284F817221A0C1B0E84F81932D4F8E9
:102810000A3084F81822C3F3072284F81A3284F8A5
:102820001B221A0C1B0E84F8120284F8130284F87F
:102830001C2284F81D32D4F8122001236078094D3F
:10284000A84700236371002260781146064B984721
:10285000003818BF012038BD02F8013BB3E700BFC4
:1028600051240000B5350000E9350000D0F81630DD
:102870000239023B8B4283BF8378D0F8260001FBEC
:10288000030000207047000001292DE9F0410646B1
:102890000D4663D9D0F816308B425FD90378022BEE
:1028A0002CD0032B3DD0012B09D101EB5107D0F8DF
:1028B0001E10DFF8AC8001EB5721C04710B14FF07C
:1028C000FF3019E0D6F81E10C7F308030137334470
:1028D000304601EB572193F82E40C0470028EED137
:1028E000C7F308073E4496F82E00EB0744EA0020A1
:1028F0004CBF0009C0F30B00BDE8F081D0F81E10FA
:10290000174B01EB152198470028D8D16D0005F42D
:10291000FF75354495F82F3095F82E0040EA0320D6
:10292000EAE7D0F81E100E4B01EBD51198470028AE
:10293000C5D1A90001F4FE7101F12E03334498784A
:10294000DA780004751840EA026095F82E205B786A
:10295000104340EA032020F07040CDE70120CBE790
:1029600051240000F8B50D46C18081680446012954
:1029700001D10220F8BD0368D3F816208A42F8D9A5
:10298000D9B91A78032A02D1D3F82210A9B90022A2
:1029900022736273A273E2731A89AA42E9D9D3F847
:1029A000223003EB15132361216805F00F052E314A
:1029B00001EB451500206561DCE79E780D4F36017F
:1029C000B542206806D20C4BE160984700EB151029
:1029D0002061E9E7B847431C014609D00128C8D95E
:1029E0002368D3F816308342C3D9AD1BADB2E7E7F5
:1029F0000120BFE7892800006D28000010B5C188BC
:102A0000074B0446984750B921692068054B984701
:102A100028B9E52263691A70012223681A7110BD72
:102A2000652900005124000001292DE9F0410546E7
:102A30000C46164677D9D0F816308B4273D90378F6
:102A4000022B3DD0032B4ED0012B6AD101EB510755
:102A5000D0F81E10DFF8D48001EB5721C04718BB17
:102A6000C7F3080314F001042B4417BF93F82E108A
:102A7000F1B201F00F0031011CBF01F0F001014380
:102A800083F82E100123D5F81E10013728462B712C
:102A900001EB5721C04738B9C7F308072F443CB1B1
:102AA000C6F3071687F82E6001232B71BDE8F0816D
:102AB00097F82E30C6F3032623F00F031E43F1E7E9
:102AC000D0F81E10194B01EB142198470028EBD1C8
:102AD000640004F4FF742C4484F82E60C6F30726C7
:102AE00084F82F60E0E7D0F81E10104B01EBD411F2
:102AF00098470028D8D1A40004F4FE7404F12E03F2
:102B00002B44DA782C44120602F070421643C6F3C6
:102B1000072284F82E605A70320C360E9A70DE70DE
:102B2000C2E70220C0E70220C0E700BF5124000036
:102B30002DE9F04105460F4699B9D0F80A60FEB17B
:102B4000D0F816309E4228BF01263446DFF88C802C
:102B5000D5F816300134A34215D8012E12D800241E
:102B600005E01E4B98470128044603D8012420465F
:102B7000BDE8F081D5F816308342F8D83E46E4E748
:102B80000126E2E7022421462846C04730B1411C15
:102B900020D00128EAD0B442DAD1E0E76FF07042E9
:102BA000214628460E4EB04790B95FB9D5F80E3091
:102BB000C5F80A405A1CDAD0013BC5F80E30012393
:102BC0006B71D4E7224639462846B0470028EDD03D
:102BD0000128CBD14FF0FF34C9E700BF892800009E
:102BE000292A00002DE9F047C68804460136B6B20E
:102BF000894616B90420BDE8F0870369002BF9D097
:102C000016F00F0807D1E16801330068236151B95C
:102C10000389B342EED9236800202E3303EB481317
:102C2000E6806361E7E78778013F17EA1617F2D17C
:102C30002B4B98470128054601D80220DBE7421CB0
:102C400001D10120D7E72068D0F81630AB422DD84B
:102C5000B9F1000FCED0E168224B98470546002815
:102C60003CD00128E9D0431CEBD000212068DFF8DC
:102C70007C90C8470028E4D1236803F12E0203F2B8
:102C80002E23934219D1226829461046164B9847A5
:102C90004FF0010AC2F82A002068FAB28378934202
:102CA0000ED8D0F82A309B1AC0F82A30294620685E
:102CB0000D4BE56098472061ADE702F8010BE0E7B6
:102CC000002180F804A0C84701370028B9D1226844
:102CD000D2F82A300133C2F82A30DDE707208AE72C
:102CE00089280000312B00006D28000051240000CD
:102CF0002DE9F8430B7880462F2B0C4601D05C2B36
:102D000000D10134002588F8085088F8095088F867
:102D10000A5088F80B5023781F2B35D9634D234672
:102D200013F8012B2F2A3DD05C2A3BD0D8F818701D
:102D300020213B4607F10B02934235D100214FF091
:102D4000080C0B4604F1FF3EC4F1020909EB0E002A
:102D50001EF8012F202A3CD92F2A3AD05C2A38D0DD
:102D60002E2A00F099808C450CD9100644BF803A79
:102D7000AA5C4F4E48BF43F0030316F8010BB0B1F5
:102D80008242FAD106200BE029464046494B98473B
:102D900088F8145088F8155088F8165088F817509D
:102DA000BDE8F8831C46BAE703F8011BC4E7A2F1AB
:102DB0004100192804D843F002037A540131C5E7D1
:102DC000A2F1610019289EBF203A43F00103D2B25C
:102DD000F3E7212A34BF0422002204440029D1D081
:102DE0003978E52904BF05213970BCF1080F39D1C4
:102DF0009B00DBB203F00C03042B08BF42F0080277
:102E0000002140462B4BFA72984700BB2A4F2B4EAD
:102E1000D8F81010D8F80000B847C0B9D8F8143066
:102E20001A7832B3D87A10F008000BD1D8F81820ED
:102E300003F10B0E9E450AD013F801CB12F8011BCB
:102E40008C45F7D000214046B0470028E0D0D8F8A4
:102E50001830DB7A78B10428A2D113F0040F08BF30
:102E600005209DE703F00301012908BF42F010028D
:102E7000C0E70420EBE75A0792D4D8F81410CB7AB5
:102E8000DB0607D5D8F8003018780D4B9847C8F8FE
:102E9000080044E7052083E7BCF1080F7FF472AF18
:102EA0009B006146DBB24FF00B0C4FE7533700003D
:102EB000443700006529000051240000E52B000084
:102EC000352400002DE9F04100211A4B06469847B1
:102ED000044698B9184DDFF868802F46316930688C
:102EE000A847044650B973691B78E52B0CD05BB139
:102EF00001213046C04704460028EFD02046BDE8F7
:102F0000F08103F8011B0AE031693068B8470446D4
:102F10000028F3D170692146034600F120029A424D
:102F2000EFD10B22054BB1699847012233681A7122
:102F3000E4E700BF6529000051240000F5230000EC
:102F4000E52B000070B504460420114D114E216997
:102F500009B968B113E02068A84780B9626913789D
:102F60009BB1E52B06D02E2B04D0D37A1B0701D4BE
:102F7000002070BD00212046B0470028E7D0002384
:102F800023746374A374E374F3E70420F7E700BFCA
:102F900051240000E52B000001292DE9F0410546F0
:102FA0000C4626D9D0F816308B4222D9134E144F36
:102FB00021462846B047A046044610B90020BDE887
:102FC000F081012815D0411C15D000224146284629
:102FD000B8470028F3D1D5F80E305A1C1FBF013373
:102FE000C5F80E3001236B71D5F816309C42DFD343
:102FF000E4E70220E3E70120E1E700BF89280000C1
:10300000292A000040B9054B1A6802B1107009B1B5
:1030100000220A70196070470B207047B40000103E
:103020002DE9F0438DB0164604460191002800F0CA
:103030008C80002302F01E02037043708370C37003
:1030400005A9454B01A89847B0B902AB0B9301996C
:10305000424B05A898470A9D10B9002D08BF0620CD
:1030600016F01C0F06F01F0764D040B1042803D1EE
:103070003B4B05A8984758B10DB0BDE8F083EB7AFB
:1030800013F0110F5FD1710761D4330734D502E01B
:103090000A9D47F00807334B98470026C0F30723E3
:1030A000A873EB73DDF81480030C000E2B74EE7222
:1030B0002E776E77AE77EE77687498F800002A4B1B
:1030C000294698470123AE76EE762E756E75064634
:1030D00088F8043080B10146244B4046D8F82A9045
:1030E00098470028C8D10598013E4946204BC0F8B2
:1030F0000A6098470028BFD1059E3A07D6F82A30C3
:1031000048BF47F02007E3612562A7713078164B6E
:103110002946984720610020EB692072E3606072C5
:10312000A072E07220766076A076E0762660F38862
:10313000A380A1E700289FD1EB7ADA0609D4B00773
:10314000DAD5D907D8D5072096E7092094E70820D3
:1031500092E7042090E700BF25250000F12C000035
:10316000C52E0000DD1A000035240000992F000054
:10317000512400002DE9F74F9A460023CAF8003089
:103180004D4B04468846154698470646A0BB94F921
:10319000063094F80690002B1FDB19F0010900F0AF
:1031A0008880E768A268BF1AAF4228BF2F461FB3C6
:1031B000A268C2F30803002B62D120688378013B28
:1031C00003EA522313F0FF031BD142B920690128FF
:1031D0000BD8A37963F07F03A37102260CE0616929
:1031E000364A01939047019BF1E7421C08D14E46B5
:1031F000A37963F07F03A371304603B0BDE8F08F7D
:103200006061D4F800B0019358462D4B616998472E
:10321000019B0028DDD0B7F5007F03EB00022ED321
:103220009BF8021003EB572088424FEA572588BFCE
:10323000CD1A9BF801004146DFF890B0EBB2019245
:10324000D847019A0028D2D121680B795BB1D1F817
:103250002A00801AA84206D24FF40072194B2E3170
:1032600008EB402098476D02A368A8442B44A36054
:10327000DAF800307F1B2B44CAF8003097E7A261D0
:10328000A568A169C5F30805C5F50075BD422068AC
:103290000D4B28BF3D4698470028A8D1A368216858
:1032A000C3F308032E3319442A464046054B98477A
:1032B000DAE70726A0E700BF0924000089280000FC
:1032C0006D280000F5230000512400008135000026
:1032D00070B5204B0546984700283AD1A87910F0E0
:1032E000200036D0E96928681B4B9847064680BB0A
:1032F0002C6AE37A43F02003E372EB682377EB68F0
:10330000C3F307236377EB681B0CA377EB681B0EF3
:10331000E3772B69A376C3F307221B0C23751B0AE3
:103320006375E2760D4B9847C0F30723E375030CF2
:103330002376030EA0756376A674E674AB792868CD
:1033400023F02003AB7101230371BDE87040044BEF
:10335000184770BD0924000051240000DD1A000048
:103360009127000010B5044B0446984718B9207007
:103370006070A070E07010BDD132000030B595B023
:1033800001900122224B06A901A89847B8B903ABC6
:103390000C9301991F4B06A8984780B90B990029F7
:1033A00030D0CD7AEA0731D4069B18781A4B98476B
:1033B000EB06044605D4194B06A89847B0B115B0E2
:1033C00030BD012820D9164B06A90DA81C2298470C
:1033D0000221144B0DA80F9498470028EFD1124BEF
:1033E0000DA8984790B10428E9D1E4E71CB90698E4
:1033F0000E4B9847E3E7214606980D4B9847002867
:10340000DDD1F4E70620DAE70220D8E70720D6E787
:1034100025250000F12C000035240000FD290000C6
:10342000F523000065290000452F000091270000CA
:10343000992F000070B59AB00D46019001223B4BC8
:103440000CA901A89847002868D10C9B01991393F7
:10345000374E03AB0CA81293B04700285ED11199E8
:1034600000295DD01522334C0B3106A8A0470CA9CA
:1034700013A81C22A047294613A8B047002851D002
:1034800004284BD12C4B13A89847002846D1189DEF
:1034900013220DF11A0105F10D00A0479DF8183017
:1034A0000C9C43F02003EB72012323710E9A159BB1
:1034B0009A422CD0EB7ADB0629D529461F4B20787F
:1034C00098471F4B014620469847014660B3204667
:1034D0001C4B984710BB0C9A92F84F302E2B16D1EC
:1034E0001178159B032904D1D2F82210994208BF04
:1034F0000023C3F3072182F868301B0C82F8623086
:103500001B0A82F86330012382F8691013710E4B95
:103510000CA8984710B90C980C4B98471AB070BD7E
:103520000420FBE70820F9E70220F7E72525000043
:10353000F12C0000F5230000C52E0000352400000A
:103540006D28000051240000FD2900009127000093
:1035500008B528B9034B9847003818BF012008BDAB
:103560000120FCE73912000008B528B9034B984741
:10357000003818BF012008BD0120FCE7550D0000F0
:103580002DE9F0410F461446054670B9DFF820805A
:1035900002EB4326B44202D12846BDE8F081214621
:1035A0003846C04704F50074F4E70425F4E700BF8B
:1035B000A51000002DE9F0410F461446054670B9EC
:1035C000DFF8208002EB4326B44202D12846BDE852
:1035D000F08121463846C04704F50074F4E704251D
:1035E000F4E700BF5D11000010B51446C8B9042906
:1035F00015D8DFE801F0030E061203000020C0B268
:1036000010BD094B984780B22080003818BF0120B8
:10361000F5E7064B98472060F7E7034BFAE70120F0
:10362000EDE70420ECE700BF710D0000650D000020
:10363000024B13B10248FEF7E7B8704700000000E4
:103640004536000038B5084B084D5B1B9C1007D071
:10365000043B1D44013C55F804399847002CF9D12E
:10366000BDE8384000F0C0B8F8370000F43700007B
:10367000010200426F6F746C6F6164657220537455
:103680006172740A0049535020627574746F6E2021
:10369000707265737365642C20656E746572696EF3
:1036A0006720444655206D6F64650A0057415443B6
:1036B00048444F472072657365742C20656E7465AD
:1036C00072696E6720444655206D6F64650A005527
:1036D00073657220666C61736820656D7074792CF7
:1036E00020656E61626C696E67204446550A004A27
:1036F000756D70696E6720746F20307825780A00C8
:103700004A756D70210A006669726D776172652E67
:10371000637572006669726D776172652E62696E9B
:10372000003031323334353637383941424344453D
:10373000460030780000010002000400080080000C
:1037400000010002222A2B2C3A3B3C3D3E3F5B5DB0
:103750007C7F00809A90418E418F80454545494944
:10376000498E8F9092924F994F555559999A9B9C9B
:103770009D9E9F41494F55A5A5A6A7A8A9AAABAC58
:1037800021AEAFB0B1B2B3B4B5B6B7B8B9BABBBC7D
:10379000BDBEBFC0C1C2C3C4C5C6C7C8C9CACBCCE1
:1037A000CDCECFD0D1D2D3D4D5D6D7D8D9DADBDCD1
:1037B000DDDEDFE0E1E2E3E4E5E6E7E8E9EAEBECC1
:1037C000EDEEEFF0F1F2F3F4F5F6F7F8F9FAFBFCB1
:1037D000FDFEFF00F8B500BFF8BC08BC9E46704770
:1037E000313600004D010000F8B500BFF8BC08BC40
:1037F0009E467047290100000000000028380000A4
:0C3800000000001090000000580B0000B9
:10380C00C0C8FF7F01000000C4E7FF7FB0B0B080EC
:08381C00E8E7FF7F0100000056
:10382800143700000737000000F4010002001201FD
:10383800000200000040501D156040000102000118
:1038480009021B0001010080FA0904000000FE01C2
:10385800020309210BF40100020101040309041AFF
:103868000353006D006F006F007400680069006505
:10387800005700610072006500120353006D006F6D
:10388800006F0074006800690065001A0353006D3A
:10389800006F006F00740068006900650020004434
:1038A8000046005500000000000E27070000000039
:04000003000000CD2C
:00000001FF
